{"abi":[{"type":"constructor","inputs":[{"name":"_alpha","type":"int128","internalType":"int128"},{"name":"_beta","type":"int128","internalType":"int128"},{"name":"_collateral","type":"uint256","internalType":"uint256"}],"stateMutability":"nonpayable"},{"type":"function","name":"alpha","inputs":[],"outputs":[{"name":"","type":"int128","internalType":"int128"}],"stateMutability":"view"},{"type":"function","name":"balances","inputs":[{"name":"","type":"address","internalType":"address"}],"outputs":[{"name":"","type":"uint256","internalType":"uint256"}],"stateMutability":"view"},{"type":"function","name":"beta","inputs":[],"outputs":[{"name":"","type":"int128","internalType":"int128"}],"stateMutability":"view"},{"type":"function","name":"cancelTask","inputs":[{"name":"taskId","type":"uint256","internalType":"uint256"}],"outputs":[],"stateMutability":"nonpayable"},{"type":"function","name":"collateralPerRating","inputs":[],"outputs":[{"name":"","type":"uint256","internalType":"uint256"}],"stateMutability":"view"},{"type":"function","name":"createTask","inputs":[{"name":"promptHash","type":"bytes32","internalType":"bytes32"},{"name":"outputHash","type":"bytes32","internalType":"bytes32"},{"name":"maxRaters","type":"uint8","internalType":"uint8"},{"name":"minRaters","type":"uint8","internalType":"uint8"},{"name":"timeout","type":"uint256","internalType":"uint256"}],"outputs":[{"name":"taskId","type":"uint256","internalType":"uint256"}],"stateMutability":"nonpayable"},{"type":"function","name":"deposit","inputs":[],"outputs":[],"stateMutability":"payable"},{"type":"function","name":"finalizeTask","inputs":[{"name":"taskId","type":"uint256","internalType":"uint256"}],"outputs":[],"stateMutability":"nonpayable"},{"type":"function","name":"getActiveTasks","inputs":[],"outputs":[{"name":"","type":"uint256[]","internalType":"uint256[]"}],"stateMutability":"view"},{"type":"function","name":"getRatings","inputs":[{"name":"taskId","type":"uint256","internalType":"uint256"}],"outputs":[{"name":"","type":"tuple[]","internalType":"struct LichenCoordinator.Rating[]","components":[{"name":"rater","type":"address","internalType":"address"},{"name":"signal","type":"bool","internalType":"bool"},{"name":"prediction","type":"int128","internalType":"int128"}]}],"stateMutability":"view"},{"type":"function","name":"getScore","inputs":[{"name":"taskId","type":"uint256","internalType":"uint256"},{"name":"rater","type":"address","internalType":"address"}],"outputs":[{"name":"","type":"int256","internalType":"int256"}],"stateMutability":"view"},{"type":"function","name":"getTask","inputs":[{"name":"taskId","type":"uint256","internalType":"uint256"}],"outputs":[{"name":"task","type":"tuple","internalType":"struct LichenCoordinator.Task","components":[{"name":"promptHash","type":"bytes32","internalType":"bytes32"},{"name":"worker","type":"address","internalType":"address"},{"name":"outputHash","type":"bytes32","internalType":"bytes32"},{"name":"maxRaters","type":"uint8","internalType":"uint8"},{"name":"minRaters","type":"uint8","internalType":"uint8"},{"name":"deadline","type":"uint256","internalType":"uint256"},{"name":"phase","type":"uint8","internalType":"enum LichenCoordinator.Phase"},{"name":"accepted","type":"bool","internalType":"bool"}]},{"name":"taskRatings","type":"tuple[]","internalType":"struct LichenCoordinator.Rating[]","components":[{"name":"rater","type":"address","internalType":"address"},{"name":"signal","type":"bool","internalType":"bool"},{"name":"prediction","type":"int128","internalType":"int128"}]}],"stateMutability":"view"},{"type":"function","name":"getWorkerReputation","inputs":[{"name":"worker","type":"address","internalType":"address"}],"outputs":[{"name":"tasksCompleted","type":"uint256","internalType":"uint256"},{"name":"approvals","type":"uint256","internalType":"uint256"}],"stateMutability":"view"},{"type":"function","name":"hasRated","inputs":[{"name":"","type":"uint256","internalType":"uint256"},{"name":"","type":"address","internalType":"address"}],"outputs":[{"name":"","type":"bool","internalType":"bool"}],"stateMutability":"view"},{"type":"function","name":"nextTaskId","inputs":[],"outputs":[{"name":"","type":"uint256","internalType":"uint256"}],"stateMutability":"view"},{"type":"function","name":"ratings","inputs":[{"name":"","type":"uint256","internalType":"uint256"},{"name":"","type":"uint256","internalType":"uint256"}],"outputs":[{"name":"rater","type":"address","internalType":"address"},{"name":"signal","type":"bool","internalType":"bool"},{"name":"prediction","type":"int128","internalType":"int128"}],"stateMutability":"view"},{"type":"function","name":"scores","inputs":[{"name":"","type":"uint256","internalType":"uint256"},{"name":"","type":"address","internalType":"address"}],"outputs":[{"name":"","type":"int256","internalType":"int256"}],"stateMutability":"view"},{"type":"function","name":"submitRating","inputs":[{"name":"taskId","type":"uint256","internalType":"uint256"},{"name":"signal","type":"bool","internalType":"bool"},{"name":"prediction","type":"int128","internalType":"int128"}],"outputs":[],"stateMutability":"nonpayable"},{"type":"function","name":"tasks","inputs":[{"name":"","type":"uint256","internalType":"uint256"}],"outputs":[{"name":"promptHash","type":"bytes32","internalType":"bytes32"},{"name":"worker","type":"address","internalType":"address"},{"name":"outputHash","type":"bytes32","internalType":"bytes32"},{"name":"maxRaters","type":"uint8","internalType":"uint8"},{"name":"minRaters","type":"uint8","internalType":"uint8"},{"name":"deadline","type":"uint256","internalType":"uint256"},{"name":"phase","type":"uint8","internalType":"enum LichenCoordinator.Phase"},{"name":"accepted","type":"bool","internalType":"bool"}],"stateMutability":"view"},{"type":"function","name":"withdraw","inputs":[{"name":"amount","type":"uint256","internalType":"uint256"}],"outputs":[],"stateMutability":"nonpayable"},{"type":"function","name":"workerReputation","inputs":[{"name":"","type":"address","internalType":"address"}],"outputs":[{"name":"tasksCompleted","type":"uint256","internalType":"uint256"},{"name":"approvals","type":"uint256","internalType":"uint256"}],"stateMutability":"view"},{"type":"event","name":"Deposited","inputs":[{"name":"agent","type":"address","indexed":true,"internalType":"address"},{"name":"amount","type":"uint256","indexed":false,"internalType":"uint256"}],"anonymous":false},{"type":"event","name":"RatingSubmitted","inputs":[{"name":"taskId","type":"uint256","indexed":true,"internalType":"uint256"},{"name":"rater","type":"address","indexed":true,"internalType":"address"},{"name":"signal","type":"bool","indexed":false,"internalType":"bool"},{"name":"ratingCount","type":"uint256","indexed":false,"internalType":"uint256"}],"anonymous":false},{"type":"event","name":"TaskCancelled","inputs":[{"name":"taskId","type":"uint256","indexed":true,"internalType":"uint256"}],"anonymous":false},{"type":"event","name":"TaskCreated","inputs":[{"name":"taskId","type":"uint256","indexed":true,"internalType":"uint256"},{"name":"worker","type":"address","indexed":true,"internalType":"address"},{"name":"promptHash","type":"bytes32","indexed":false,"internalType":"bytes32"},{"name":"maxRaters","type":"uint8","indexed":false,"internalType":"uint8"},{"name":"minRaters","type":"uint8","indexed":false,"internalType":"uint8"},{"name":"deadline","type":"uint256","indexed":false,"internalType":"uint256"}],"anonymous":false},{"type":"event","name":"TaskFinalized","inputs":[{"name":"taskId","type":"uint256","indexed":true,"internalType":"uint256"},{"name":"raterCount","type":"uint256","indexed":false,"internalType":"uint256"},{"name":"accepted","type":"bool","indexed":false,"internalType":"bool"}],"anonymous":false},{"type":"event","name":"Withdrawn","inputs":[{"name":"agent","type":"address","indexed":true,"internalType":"address"},{"name":"amount","type":"uint256","indexed":false,"internalType":"uint256"}],"anonymous":false}],"bytecode":{"object":"0x60e0346100b057601f611e3e38819003918201601f19168301916001600160401b038311848410176100b4578084926060946040528339810103126100b057610047816100c8565b906040610056602083016100c8565b9101519160805260a05260c052604051611d6790816100d7823960805181818161013b01526115a6015260a05181818161032d01526115c8015260c0518181816102b20152818161086001528181610eda015261155e0152f35b5f80fd5b634e487b7160e01b5f52604160045260245ffd5b519081600f0b82036100b05756fe6080806040526004361015610012575f80fd5b5f3560e01c90816308a101b8146111de575080630c5f891c14610e0b5780631d65e77e14610c3b57806327e235e314610c045780632e1a7d4d14610adb578063482ef36014610a765780636127f246146109c057806376454486146109775780637a07b674146107a55780637eec20a8146107e957806380f2ff25146107a557806388488c33146106cc5780638d9776721461063e57806395b9f370146103535780639faa3c9114610316578063c7440c8c146102d5578063c7ee62141461029b578063d0e30db014610210578063d18e250914610161578063db1d0fd5146101245763fdc3d8d714610103575f80fd5b34610120575f366003190112610120576020600154604051908152f35b5f80fd5b34610120575f3660031901126101205760206040517f0000000000000000000000000000000000000000000000000000000000000000600f0b8152f35b34610120576020366003190112610120576004355f52600360205260405f20805461018b8161139d565b91610199604051938461137b565b81835260208301905f5260205f205f915b8383106101cb57604051602080825281906101c790820188611257565b0390f35b600260206001926040516101de81611342565b60ff8654868060a01b038116835260a01c1615158382015284860154600f0b60408201528152019201920191906101aa565b5f36600319011261012057341561026757335f525f60205260405f206102373482546113b5565b90556040513481527f2da466a7b24304f47e87fa2e1e5a81b9831ce54fec19055ce277ca2f39ba42c460203392a2005b60405162461bcd60e51b815260206004820152600c60248201526b1e995c9bc819195c1bdcda5d60a21b6044820152606490fd5b34610120575f3660031901126101205760206040517f00000000000000000000000000000000000000000000000000000000000000008152f35b34610120576020366003190112610120576001600160a01b036102f661121e565b165f5260066020526040805f206001815491015482519182526020820152f35b34610120575f3660031901126101205760206040517f0000000000000000000000000000000000000000000000000000000000000000600f0b8152f35b346101205760a0366003190112610120576004356044359060ff8216809203610120576064359060ff821680920361012057608435926002811061060257600283106105c65780831161059557831561056157600154926103b3846113c2565b6001556103c085426113b5565b604051906103cd8261135e565b8482526005602083019233845260408101926024358452606082018781526080830187815260a0840192835260c08401955f875260e08501975f89528c5f52600260205260405f209551865560018060a01b03905116600186019060018060a01b03166bffffffffffffffffffffffff60a01b82541617905551600285015560ff6003850192511661ff008354925160081b169161ffff19161717905551600482015501905191600383101561054d578154905161ff0090151560081b1660ff9390931661ffff1990911617919091179055600754600160401b811015610539576020956104e0866104c88460016104f596016007556113d0565b90919082549060031b91821b915f19901b1916179055565b600754865f526008885260405f2055426113b5565b916040519384528584015260408301526060820152817f9bbb45800e0bd2c0c7635258fc1f93d3e8c8953bff1170db3e2ddae3ea43f92460803393a3604051908152f35b634e487b7160e01b5f52604160045260245ffd5b634e487b7160e01b5f52602160045260245ffd5b60405162461bcd60e51b815260206004820152600c60248201526b1e995c9bc81d1a5b595bdd5d60a21b6044820152606490fd5b60405162461bcd60e51b81526020600482015260096024820152680dad2dc407c40dac2f60bb1b6044820152606490fd5b60405162461bcd60e51b81526020600482015260146024820152736e656564203e3d2032206d696e2072617465727360601b6044820152606490fd5b60405162461bcd60e51b81526020600482015260146024820152736e656564203e3d2032206d61782072617465727360601b6044820152606490fd5b34610120576020366003190112610120576004355f52600260205261010060405f2060ff81549160018060a01b0360018201541690826002820154600383015490600560048501549401549460405197885260208801526040870152818116606087015260081c16608085015260a08401526106bf60c0840183831661124a565b60081c16151560e0820152f35b3461012057602036600319011261012057600435805f52600260205260405f2060ff600582015416600381101561054d5761070790156112de565b815f52600360205260405f2054600382015460ff81168210155f146107345750505061073290611464565b005b60081c60ff1611159081610797575b50156107525761073290611464565b60405162461bcd60e51b815260206004820152601f60248201527f66696e616c697a6174696f6e20636f6e646974696f6e73206e6f74206d6574006044820152606490fd5b600491500154421182610743565b34610120576040366003190112610120576107be611234565b6004355f52600560205260405f209060018060a01b03165f52602052602060405f2054604051908152f35b3461012057602036600319011261012057600435805f52600260205260405f20600581019060ff825416600381101561054d5761082690156112de565b600481015442111561093c57825f52600360205260ff600360405f205492015460081c168110156108f7575f8381526003602052604081207f0000000000000000000000000000000000000000000000000000000000000000915b8381106108c357845460ff191660021785558561089d81611a02565b7fc6eacc3aa5b2aa77b5a826b832a804ca0b71830ec74f9aa57a15edd978c31ed65f80a2005b806108d0600192846112b1565b50828060a01b039054165f525f60205260405f206108ef8582546113b5565b905501610881565b60405162461bcd60e51b815260206004820152601960248201527f656e6f7567682072617465727320746f2066696e616c697a65000000000000006044820152606490fd5b60405162461bcd60e51b8152602060048201526013602482015272191958591b1a5b99481b9bdd081c185cdcd959606a1b6044820152606490fd5b3461012057604036600319011261012057610990611234565b6004355f52600460205260405f209060018060a01b03165f52602052602060ff60405f2054166040519015158152f35b34610120575f366003190112610120576040518060206007549283815201809260075f527fa66cc928b5edb82af9bd49922954155ab7b0942694bea4ce44661d9a8736c688905f5b818110610a605750505081610a1e91038261137b565b604051918291602083019060208452518091526040830191905f5b818110610a47575050500390f35b8251845285945060209384019390920191600101610a39565b8254845260209093019260019283019201610a08565b34610120576040366003190112610120576024356004355f52600360205260405f20805482101561012057606091610aad916112b1565b5060018154910154600f0b60ff6040519260018060a01b038116845260a01c16151560208301526040820152f35b3461012057602036600319011261012057600435335f525f6020528060405f205410610bc857335f525f60205260405f20610b17828254611321565b90555f80808084335af13d15610bc3573d67ffffffffffffffff81116105395760405190610b4f601f8201601f19166020018361137b565b81525f60203d92013e5b15610b8c576040519081527f7084f5476618d8e60b11ef0d7d3f06914655adb8793e28ff7f018d4c76d505d560203392a2005b60405162461bcd60e51b815260206004820152600f60248201526e1d1c985b9cd9995c8819985a5b1959608a1b6044820152606490fd5b610b59565b60405162461bcd60e51b8152602060048201526014602482015273696e73756666696369656e742062616c616e636560601b6044820152606490fd5b34610120576020366003190112610120576001600160a01b03610c2561121e565b165f525f602052602060405f2054604051908152f35b34610120576020366003190112610120576004355f60e0604051610c5e8161135e565b8281528260208201528260408201528260608201528260808201528260a08201528260c08201520152805f52600260205260405f2090604051610ca08161135e565b8254815260018060a01b03600184015416916020820192835260028401549060408301918252600385015490606084019560ff8316875260ff608086019360081c168352600560048201549160a0870192835201549260ff84169260c0870193600381101561054d57845260ff60e088019560081c16151585525f52600360205260405f2097885495610d328761139d565b96610d40604051988961137b565b808852602088019a5f5260205f209a5f905b828210610dc5575050506101c79695949260ff610da9959381936040519c8d9c518d5260018060a01b0390511660208d01525160408c0152511660608a0152511660808801525160a08701525160c086019061124a565b51151560e0840152610120610100840152610120830190611257565b600260206001928f8460405191610ddb83611342565b60ff8154838060a01b038116855260a01c161515858401520154600f0b60408201528152019d019101909b610d52565b34610120576060366003190112610120576004356024358015158091036101205760443580600f0b80910361012057825f52600260205260405f2060ff600582015416600381101561054d57610e6190156112de565b5f84815260046020908152604080832033845290915290205460ff166111a95760018101546001600160a01b0316331461116457835f52600360205260405f205490600381019160ff835416111561112a576004015442116110f3575f821215806110e5575b156110a057335f525f60205260405f20547f000000000000000000000000000000000000000000000000000000000000000080911061105b57335f525f602052610f1660405f20918254611321565b9055835f52600460205260405f2060018060a01b0333165f5260205260405f20600160ff19825416179055835f52600360205260405f2091604051610f5a81611342565b3381526020810193858552604082019283528054600160401b81101561053957610f89916001820181556112b1565b611048579051815494516001600160a81b03199095166001600160a01b039091161793151560a01b60ff60a01b1693909317835551600190920180546001600160801b039093166fffffffffffffffffffffffffffffffff19909316929092179091555f838152600360209081526040918290205482519485529084018190529260ff9291339186917f747ba6c73fbd858921ec8dc4d7bec96be7b6c7d2fe5c0e93d1ed4be22250084191a35416111561103f57005b61073290611464565b634e487b7160e01b5f525f60045260245ffd5b60405162461bcd60e51b815260206004820152601760248201527f696e73756666696369656e7420636f6c6c61746572616c0000000000000000006044820152606490fd5b60405162461bcd60e51b815260206004820152601760248201527f70726564696374696f6e206f7574206f662072616e67650000000000000000006044820152606490fd5b50600160401b821315610ec7565b60405162461bcd60e51b815260206004820152600f60248201526e191958591b1a5b99481c185cdcd959608a1b6044820152606490fd5b60405162461bcd60e51b81526020600482015260126024820152711b585e081c985d195c9cc81c995858da195960721b6044820152606490fd5b60405162461bcd60e51b815260206004820152601b60248201527f776f726b65722063616e6e6f742072617465206f776e207461736b00000000006044820152606490fd5b60405162461bcd60e51b815260206004820152600d60248201526c185b1c9958591e481c985d1959609a1b6044820152606490fd5b34610120576020366003190112610120576040906001600160a01b0361120261121e565b165f526006602052815f20600181549101549082526020820152f35b600435906001600160a01b038216820361012057565b602435906001600160a01b038216820361012057565b90600382101561054d5752565b90602080835192838152019201905f5b8181106112745750505090565b825180516001600160a01b03168552602081810151151581870152604091820151600f0b9186019190915260609094019390920191600101611267565b80548210156112ca575f5260205f209060011b01905f90565b634e487b7160e01b5f52603260045260245ffd5b156112e557565b60405162461bcd60e51b81526020600482015260146024820152736e6f74206177616974696e6720726174696e677360601b6044820152606490fd5b9190820391821161132e57565b634e487b7160e01b5f52601160045260245ffd5b6060810190811067ffffffffffffffff82111761053957604052565b610100810190811067ffffffffffffffff82111761053957604052565b90601f8019910116810190811067ffffffffffffffff82111761053957604052565b67ffffffffffffffff81116105395760051b60200190565b9190820180921161132e57565b5f19811461132e5760010190565b6007548110156112ca5760075f5260205f2001905f90565b677fffffffffffffff81116101205760401b600f0b90565b811561140a570490565b634e487b7160e01b5f52601260045260245ffd5b906114288261139d565b611435604051918261137b565b8281528092611446601f199161139d565b0190602036910137565b80518210156112ca5760209160051b010190565b805f52600260205260405f20815f52600360205260405f20805491600283106119c957611490836113e8565b915f925f905f5b86811061197557506114cf6114ba6114bf6114ba846114b58a6113e8565b611af0565b611b1e565b926114c984611b4a565b94611af0565b906114d982611b4a565b9482600f0b82600f0b12159660648102908082046064149015171561132e578861150291611400565b87611968575b50600581018054600198151560081b61ff001661ffff199091161788178155960180546001600160a01b03165f908152600660205260409020805461154c906113c2565b905560ff875460081c1661193b575b507f00000000000000000000000000000000000000000000000000000000000000009283880293888504148815171561132e5791879061159d8297939761141e565b965f915f9489897f0000000000000000000000000000000000000000000000000000000000000000957f0000000000000000000000000000000000000000000000000000000000000000975b891061185757505050505050505050508251156112ca5784906020840151600f0b9360015b838110611813575061161f8361141e565b945f915f915b8583106117c05750505080600f0b155f146116fd5750611646929350611400565b5f5b848110611697575050507f279af718e95b4896837df200c7dbe83c8a9718311d08cda18903bfa36b83c7659160ff6040925b61168386611a02565b5460081c16825191825215156020820152a2565b600190865f52600560205260405f206116b082866112b1565b50838060a01b03905416838060a01b03165f526020528260405f20556116d681856112b1565b50828060a01b039054165f525f60205260405f206116f58482546113b5565b905501611648565b9091505f5b86811061173a5750505050507f279af718e95b4896837df200c7dbe83c8a9718311d08cda18903bfa36b83c7659160ff60409261167a565b8061175d846117588561174f6001968b611450565b51600f0b611af0565b611cea565b895f52600560205260405f2061177383886112b1565b50848060a01b03905416848060a01b03165f526020528060405f205561179982876112b1565b50838060a01b039054165f525f6020526117b860405f209182546113b5565b905501611702565b91939450916118066001916117e2846117d98888611450565b51600f0b611b6f565b6117ec878b611450565b90600f0b90526117fc868a611450565b51600f0b90611ab9565b9301909188949392611625565b90949192506118228186611450565b51600f0b82600f0b1361183d575b600101938692919461160e565b9050600161184b8286611450565b51600f0b919050611830565b6117fc8960019461190b8b6118f28f611905611920998f928f8f8f8f6118b48d6118ff946118f8946119059860ff61188f858d6112b1565b505460a01c161561192c5750506118a96118ae9188611af0565b611b93565b976112b1565b500154600f0b6118ff6118f86118c983611b4a565b956118f26118e86118d983611b4a565b926118e387611c9d565b611cc2565b916118e389611c9d565b90611ab9565b9180611cc2565b90611b6f565b92611cc2565b6119158383611450565b90600f0b9052611450565b960195898b918e6115e9565b6118ae9250906118a991611af0565b546001600160a01b03165f9081526006602052604090206001018054611960906113c2565b90555f61155b565b6032111596506001611508565b9160ff61198284866112b1565b505460a01c166119b1575b6119aa6001918261199e86886112b1565b500154600f0b90611ab9565b9201611497565b946119aa6119c06001926113c2565b9691505061198d565b60405162461bcd60e51b81526020600482015260116024820152706e656564203e3d203220726174696e677360781b6044820152606490fd5b805f52600860205260405f20548015611ab5575f19810181811161132e576007545f19810190811161132e57808203611a82575b5050506007548015611a6e575f1901611a4e816113d0565b8154905f199060031b1b191690556007555f5260086020525f6040812055565b634e487b7160e01b5f52603160045260245ffd5b6104c891611a92611aa1926113d0565b90549060031b1c9283916113d0565b5f52600860205260405f20555f8080611a36565b5050565b90600f0b90600f0b0160016001607f1b031981121580611adf575b1561012057600f0b90565b5060016001607f1b03811315611ad4565b90600f0b9081156101205760401b60170b0560016001607f1b031981121580611adf571561012057600f0b90565b67ffffffffffffffff81600f0b60018112611b42578112611b3d575090565b905090565b505050600190565b600f0b600160401b0360016001607f1b031981121580611adf571561012057600f0b90565b600f91820b910b0360016001607f1b031981121580611adf571561012057600f0b90565b600f0b5f811315610120575f9080600160401b821215611c90575b806401000000006002921215611c84575b62010000811215611c78575b610100811215611c6c575b6010811215611c60575b6004811215611c55575b1215611c4b575b603f19820160401b91607f031b90678000000000000000915b5f8313611c2f57506fb17217f7d1cf79abc9e3b39803f2f6af9150600f0b0260801d90565b8002908160ff1c9182607f011c918302019160011d9190611c0a565b9060010190611bf1565b92810192811d611bea565b6004938401931d611be0565b6008938401931d611bd6565b6010938401931d611bcb565b6020938401931d611bbf565b506040915080821d611bae565b600f0b60411b60401d60016001607f1b031981121580611adf571561012057600f0b90565b90600f0b90600f0b0260401d60016001607f1b031981121580611adf571561012057600f0b90565b8115611d2b57600f0b5f8112610120576001600160801b038216810260401c9160801c026001600160c01b0381116101205760401b81198111610120570190565b50505f9056fea26469706673582212202cfa9333e3948b0fc1a9b7ab2b863f231d843257c8d8d3b2f0b4d7be3cb9954a64736f6c634300081c0033","linkReferences":{}},"methodIdentifiers":{"alpha()":"db1d0fd5","balances(address)":"27e235e3","beta()":"9faa3c91","cancelTask(uint256)":"7eec20a8","collateralPerRating()":"c7ee6214","createTask(bytes32,bytes32,uint8,uint8,uint256)":"95b9f370","deposit()":"d0e30db0","finalizeTask(uint256)":"88488c33","getActiveTasks()":"6127f246","getRatings(uint256)":"d18e2509","getScore(uint256,address)":"80f2ff25","getTask(uint256)":"1d65e77e","getWorkerReputation(address)":"c7440c8c","hasRated(uint256,address)":"76454486","nextTaskId()":"fdc3d8d7","ratings(uint256,uint256)":"482ef360","scores(uint256,address)":"7a07b674","submitRating(uint256,bool,int128)":"0c5f891c","tasks(uint256)":"8d977672","withdraw(uint256)":"2e1a7d4d","workerReputation(address)":"08a101b8"},"id":20}