{"abi":[{"type":"constructor","inputs":[{"name":"_alpha","type":"int128","internalType":"int128"},{"name":"_beta","type":"int128","internalType":"int128"},{"name":"_collateral","type":"uint256","internalType":"uint256"}],"stateMutability":"nonpayable"},{"type":"function","name":"alpha","inputs":[],"outputs":[{"name":"","type":"int128","internalType":"int128"}],"stateMutability":"view"},{"type":"function","name":"balances","inputs":[{"name":"","type":"address","internalType":"address"}],"outputs":[{"name":"","type":"uint256","internalType":"uint256"}],"stateMutability":"view"},{"type":"function","name":"beta","inputs":[],"outputs":[{"name":"","type":"int128","internalType":"int128"}],"stateMutability":"view"},{"type":"function","name":"collateralPerRating","inputs":[],"outputs":[{"name":"","type":"uint256","internalType":"uint256"}],"stateMutability":"view"},{"type":"function","name":"createTask","inputs":[{"name":"promptHash","type":"bytes32","internalType":"bytes32"},{"name":"numRaters","type":"uint8","internalType":"uint8"}],"outputs":[{"name":"taskId","type":"uint256","internalType":"uint256"}],"stateMutability":"nonpayable"},{"type":"function","name":"deposit","inputs":[],"outputs":[],"stateMutability":"payable"},{"type":"function","name":"getActiveTasks","inputs":[],"outputs":[{"name":"","type":"uint256[]","internalType":"uint256[]"}],"stateMutability":"view"},{"type":"function","name":"getRatings","inputs":[{"name":"taskId","type":"uint256","internalType":"uint256"}],"outputs":[{"name":"","type":"tuple[]","internalType":"struct LichenCoordinator.Rating[]","components":[{"name":"rater","type":"address","internalType":"address"},{"name":"signal","type":"bool","internalType":"bool"},{"name":"prediction","type":"int128","internalType":"int128"}]}],"stateMutability":"view"},{"type":"function","name":"getScore","inputs":[{"name":"taskId","type":"uint256","internalType":"uint256"},{"name":"rater","type":"address","internalType":"address"}],"outputs":[{"name":"","type":"int256","internalType":"int256"}],"stateMutability":"view"},{"type":"function","name":"getTask","inputs":[{"name":"taskId","type":"uint256","internalType":"uint256"}],"outputs":[{"name":"task","type":"tuple","internalType":"struct LichenCoordinator.Task","components":[{"name":"promptHash","type":"bytes32","internalType":"bytes32"},{"name":"worker","type":"address","internalType":"address"},{"name":"outputHash","type":"bytes32","internalType":"bytes32"},{"name":"numRatersRequired","type":"uint8","internalType":"uint8"},{"name":"phase","type":"uint8","internalType":"enum LichenCoordinator.Phase"},{"name":"accepted","type":"bool","internalType":"bool"}]},{"name":"taskRatings","type":"tuple[]","internalType":"struct LichenCoordinator.Rating[]","components":[{"name":"rater","type":"address","internalType":"address"},{"name":"signal","type":"bool","internalType":"bool"},{"name":"prediction","type":"int128","internalType":"int128"}]}],"stateMutability":"view"},{"type":"function","name":"getWorkerReputation","inputs":[{"name":"worker","type":"address","internalType":"address"}],"outputs":[{"name":"tasksCompleted","type":"uint256","internalType":"uint256"},{"name":"approvals","type":"uint256","internalType":"uint256"}],"stateMutability":"view"},{"type":"function","name":"hasRated","inputs":[{"name":"","type":"uint256","internalType":"uint256"},{"name":"","type":"address","internalType":"address"}],"outputs":[{"name":"","type":"bool","internalType":"bool"}],"stateMutability":"view"},{"type":"function","name":"nextTaskId","inputs":[],"outputs":[{"name":"","type":"uint256","internalType":"uint256"}],"stateMutability":"view"},{"type":"function","name":"ratings","inputs":[{"name":"","type":"uint256","internalType":"uint256"},{"name":"","type":"uint256","internalType":"uint256"}],"outputs":[{"name":"rater","type":"address","internalType":"address"},{"name":"signal","type":"bool","internalType":"bool"},{"name":"prediction","type":"int128","internalType":"int128"}],"stateMutability":"view"},{"type":"function","name":"scores","inputs":[{"name":"","type":"uint256","internalType":"uint256"},{"name":"","type":"address","internalType":"address"}],"outputs":[{"name":"","type":"int256","internalType":"int256"}],"stateMutability":"view"},{"type":"function","name":"submitRating","inputs":[{"name":"taskId","type":"uint256","internalType":"uint256"},{"name":"signal","type":"bool","internalType":"bool"},{"name":"prediction","type":"int128","internalType":"int128"}],"outputs":[],"stateMutability":"nonpayable"},{"type":"function","name":"submitResult","inputs":[{"name":"taskId","type":"uint256","internalType":"uint256"},{"name":"outputHash","type":"bytes32","internalType":"bytes32"}],"outputs":[],"stateMutability":"nonpayable"},{"type":"function","name":"tasks","inputs":[{"name":"","type":"uint256","internalType":"uint256"}],"outputs":[{"name":"promptHash","type":"bytes32","internalType":"bytes32"},{"name":"worker","type":"address","internalType":"address"},{"name":"outputHash","type":"bytes32","internalType":"bytes32"},{"name":"numRatersRequired","type":"uint8","internalType":"uint8"},{"name":"phase","type":"uint8","internalType":"enum LichenCoordinator.Phase"},{"name":"accepted","type":"bool","internalType":"bool"}],"stateMutability":"view"},{"type":"function","name":"withdraw","inputs":[{"name":"amount","type":"uint256","internalType":"uint256"}],"outputs":[],"stateMutability":"nonpayable"},{"type":"function","name":"workerReputation","inputs":[{"name":"","type":"address","internalType":"address"}],"outputs":[{"name":"tasksCompleted","type":"uint256","internalType":"uint256"},{"name":"approvals","type":"uint256","internalType":"uint256"}],"stateMutability":"view"},{"type":"event","name":"Deposited","inputs":[{"name":"agent","type":"address","indexed":true,"internalType":"address"},{"name":"amount","type":"uint256","indexed":false,"internalType":"uint256"}],"anonymous":false},{"type":"event","name":"RatingSubmitted","inputs":[{"name":"taskId","type":"uint256","indexed":true,"internalType":"uint256"},{"name":"rater","type":"address","indexed":true,"internalType":"address"},{"name":"signal","type":"bool","indexed":false,"internalType":"bool"}],"anonymous":false},{"type":"event","name":"ResultSubmitted","inputs":[{"name":"taskId","type":"uint256","indexed":true,"internalType":"uint256"},{"name":"worker","type":"address","indexed":true,"internalType":"address"},{"name":"outputHash","type":"bytes32","indexed":false,"internalType":"bytes32"}],"anonymous":false},{"type":"event","name":"TaskCreated","inputs":[{"name":"taskId","type":"uint256","indexed":true,"internalType":"uint256"},{"name":"promptHash","type":"bytes32","indexed":false,"internalType":"bytes32"},{"name":"numRaters","type":"uint8","indexed":false,"internalType":"uint8"}],"anonymous":false},{"type":"event","name":"TaskScored","inputs":[{"name":"taskId","type":"uint256","indexed":true,"internalType":"uint256"},{"name":"accepted","type":"bool","indexed":false,"internalType":"bool"}],"anonymous":false},{"type":"event","name":"Withdrawn","inputs":[{"name":"agent","type":"address","indexed":true,"internalType":"address"},{"name":"amount","type":"uint256","indexed":false,"internalType":"uint256"}],"anonymous":false}],"bytecode":{"object":"0x60e0346100a257601f611bfe38819003918201601f19168301916001600160401b038311848410176100a6578084926060946040528339810103126100a257610047816100ba565b906040610056602083016100ba565b9101519160805260a05260c052604051611b3590816100c982396080518181816101300152610e24015260a0518181816105d50152610e48015260c05181818161038f0152610ba10152f35b5f80fd5b634e487b7160e01b5f52604160045260245ffd5b519081600f0b82036100a25756fe6080806040526004361015610012575f80fd5b5f3560e01c90816308a101b8146114f7575080630c5f891c14610b0b5780631d65e77e1461097957806327e235e3146109425780632e1a7d4d14610819578063482ef360146107b45780636127f246146106fe57806376454486146106b55780637a07b6741461067157806380f2ff25146106715780638d977672146105fb5780639faa3c91146105be578063be912791146103f3578063c7440c8c146103b2578063c7ee621414610378578063d0e30db0146102ed578063d18e25091461023e578063d2ee66cf14610156578063db1d0fd5146101195763fdc3d8d7146100f8575f80fd5b34610115575f366003190112610115576020600154604051908152f35b5f80fd5b34610115575f3660031901126101155760206040517f0000000000000000000000000000000000000000000000000000000000000000600f0b8152f35b346101155760403660031901126101155760043560243590805f52600260205260405f20600381019060ff825460081c16600381101561022a576101f1576001810180546001600160a01b03191633908117909155600291909101849055815461ff00191661010017909155604051928352917f9bb2295443670abcb0f3088e52668e961eca6816b19f155f2fca528c4b2fe34590602090a3005b60405162461bcd60e51b81526020600482015260116024820152706e6f74206177616974696e6720776f726b60781b6044820152606490fd5b634e487b7160e01b5f52602160045260245ffd5b34610115576020366003190112610115576004355f52600360205260405f2080546102688161165e565b91610276604051938461163c565b81835260208301905f5260205f205f915b8383106102a857604051602080825281906102a490820188611570565b0390f35b600260206001926040516102bb81611604565b60ff8654868060a01b038116835260a01c1615158382015284860154600f0b6040820152815201920192019190610287565b5f36600319011261011557341561034457335f525f60205260405f2061031434825461169c565b90556040513481527f2da466a7b24304f47e87fa2e1e5a81b9831ce54fec19055ce277ca2f39ba42c460203392a2005b60405162461bcd60e51b815260206004820152600c60248201526b1e995c9bc819195c1bdcda5d60a21b6044820152606490fd5b34610115575f3660031901126101155760206040517f00000000000000000000000000000000000000000000000000000000000000008152f35b34610115576020366003190112610115576001600160a01b036103d3611537565b165f5260066020526040805f206001815491015482519182526020820152f35b34610115576040366003190112610115576004356024359060ff82168092036101155760028210610586576001549061042b82611676565b60015560405161043a81611620565b81815260208101905f8252604081015f815260ff6003606084019388855260808101935f855260a08201965f8852895f52600260205260405f209251835560018060a01b03905116600183019060018060a01b03166bffffffffffffffffffffffff60a01b8254161790555160028201550192511660ff198354161782555191600383101561022a578154905162ffff001990911660089390931b61ff00169290921791151560101b62ff00001691909117905560075492600160401b84101561057257604083927f904159f58b81dc59adca08724f109eec8750cbd8f9143e12aba2cbfe60f60a84926105528561053a89600160209b01600755611684565b90919082549060031b91821b915f19901b1916179055565b600754855f5260088852835f2055825191825286820152a2604051908152f35b634e487b7160e01b5f52604160045260245ffd5b60405162461bcd60e51b815260206004820152601060248201526f6e656564203e3d20322072617465727360801b6044820152606490fd5b34610115575f3660031901126101155760206040517f0000000000000000000000000000000000000000000000000000000000000000600f0b8152f35b34610115576020366003190112610115576004355f52600260205260c060405f2060ff81549160018060a01b0360018201541690600360028201549101549160405194855260208501526040840152818116606084015261066460808401838360081c16611563565b60101c16151560a0820152f35b346101155760403660031901126101155761068a61154d565b6004355f52600560205260405f209060018060a01b03165f52602052602060405f2054604051908152f35b34610115576040366003190112610115576106ce61154d565b6004355f52600460205260405f209060018060a01b03165f52602052602060ff60405f2054166040519015158152f35b34610115575f366003190112610115576040518060206007549283815201809260075f527fa66cc928b5edb82af9bd49922954155ab7b0942694bea4ce44661d9a8736c688905f5b81811061079e575050508161075c91038261163c565b604051918291602083019060208452518091526040830191905f5b818110610785575050500390f35b8251845285945060209384019390920191600101610777565b8254845260209093019260019283019201610746565b34610115576040366003190112610115576024356004355f52600360205260405f208054821015610115576060916107eb916115ca565b5060018154910154600f0b60ff6040519260018060a01b038116845260a01c16151560208301526040820152f35b3461011557602036600319011261011557600435335f525f6020528060405f20541061090657335f525f60205260405f206108558282546115f7565b90555f80808084335af13d15610901573d67ffffffffffffffff8111610572576040519061088d601f8201601f19166020018361163c565b81525f60203d92013e5b156108ca576040519081527f7084f5476618d8e60b11ef0d7d3f06914655adb8793e28ff7f018d4c76d505d560203392a2005b60405162461bcd60e51b815260206004820152600f60248201526e1d1c985b9cd9995c8819985a5b1959608a1b6044820152606490fd5b610897565b60405162461bcd60e51b8152602060048201526014602482015273696e73756666696369656e742062616c616e636560601b6044820152606490fd5b34610115576020366003190112610115576001600160a01b03610963611537565b165f525f602052602060405f2054604051908152f35b34610115576020366003190112610115576004355f60a060405161099c81611620565b8281528260208201528260408201528260608201528260808201520152805f52600260205260405f206040516109d181611620565b8154815260018060a01b0360018301541691602082019283526003600282015491604084019283520154606083019460ff8216865260ff8260081c16906080850191600381101561022a57825260ff60a086019360101c16151583525f52600360205260405f2095865493610a458561165e565b94610a53604051968761163c565b80865260208601985f5260205f20985f905b828210610ac5575050509160ff610aac926102a4969594604051998a99518a5260018060a01b0390511660208a015251604089015251166060870152516080860190611563565b51151560a084015260e060c084015260e0830190611570565b600260206001928d8460405191610adb83611604565b60ff8154838060a01b038116855260a01c161515858401520154600f0b60408201528152019b0191019099610a65565b3461011557606036600319011261011557600435602435801515809103610115576044359081600f0b80920361011557825f526002602052600360405f20019060ff825460081c16600381101561022a576001036114bb575f84815260046020908152604080832033845290915290205460ff16611486575f83121580611478575b1561143357335f525f60205260405f2054927f00000000000000000000000000000000000000000000000000000000000000008094106113ee57335f525f60205260405f20610bdd8582546115f7565b90555f8581526004602090815260408083203384528252808320805460ff19166001179055878352600390915290819020905190610c1a82611604565b3382526020820190848252604083019384528054600160401b81101561057257610c49916001820181556115ca565b9190916113db579151815492516001600160a81b03199093166001600160a01b039091161791151560a01b60ff60a01b169190911781559051600190910180546001600160801b039092166fffffffffffffffffffffffffffffffff19909216919091179055604051908152339084907f4cb699db7a9d6d88da1af996e6f9c2d018ac84df4a5b0a722cf08ced324ecd8990602090a3825f52600360205260ff60405f20549154161115610cf957005b815f52600260205260405f2090825f52600360205260405f20805491600283106113a257610d26836116a9565b935f945f5f5b86811061134e5750610d4e610d4983610d448a6116a9565b611763565b611791565b90610d65610d4984610d5f856117bd565b93611763565b90610d6f826117bd565b9482600f0b84600f0b1215996064810290808204606414901517156110df5789610d98916116c1565b8a611341575b5060038101805462ff000019169a151560101b62ff0000169a909a178a556001908a5461ff001916610200178b550180546001600160a01b03165f9081526006602052604090208054610df090611676565b905560ff8a5460101c16611314575b508588029588870414881517156110df5787610e1d819594956116cb565b955f955f947f000000000000000000000000000000000000000000000000000000000000000092898c7f0000000000000000000000000000000000000000000000000000000000000000965b891061121e57505050505050505050610e8191611763565b610e8a856116cb565b905f925f915b87831061118d5750505081600f0b155f14610f6557505082610eb1916116c1565b905f5b838110610eff5750505050602060ff7fb4912a19109e2390fbd07484eb66d27f7fc3519f41a592d15af62c3d6837be9f925b610eef85611a01565b5460101c166040519015158152a2005b600190865f52600560205260405f20610f1882856115ca565b50838060a01b03905416838060a01b03165f526020528360405f2055610f3e81846115ca565b50828060a01b039054165f525f60205260405f20610f5d85825461169c565b905501610eb4565b610f718594939561165e565b91610f7f604051938461163c565b848352601f19610f8e8661165e565b013660208501375f915f965f925b87841061111057505050505f5b848110610fe157505050505050602060ff7fb4912a19109e2390fbd07484eb66d27f7fc3519f41a592d15af62c3d6837be9f92610ee6565b5f610fec82856116fd565b511380611107575b611074575b80611006600192856116fd565b51895f52600560205260405f2061101d83886115ca565b50848060a01b03905416848060a01b03165f5260205260405f205561104281856116fd565b5161104d82876115ca565b50838060a01b039054165f525f60205261106c60405f2091825461169c565b905501610fa9565b61107e81846116fd565b5182810291905f8412600160ff1b8214166110df5783830514831517156110df5786156110f357600160ff1b82145f198814166110df576110cd87600193056110c783876116fd565b51611711565b6110d782866116fd565b529050610ff9565b634e487b7160e01b5f52601160045260245ffd5b634e487b7160e01b5f52601260045260245ffd5b505f8613610ff4565b909192936111348361112f8461112689896116fd565b51600f0b611763565b61195d565b8061113f87896116fd565b525f81121561117957600160ff1b81146110df57600191611162915f0390611711565b945f61116e82896116fd565b525b01929190610f9c565b61118790600192969a611711565b98611170565b9091936111a78261119e87866116fd565b51600f0b6117e2565b6111b186866116fd565b90600f0b90525f6111c286866116fd565b51600f0b1215611204576111d685856116fd565b51600f0b60016001607f1b03198114610115576001916111fb915f03600f0b9061172c565b94019190610e90565b6111fb60019161121487876116fd565b51600f0b9061172c565b996112f4916112e48a6112de8a829e9f8b8e9f8c9d9e9f926112d88d9e6112d28e9f60019f6001906112d8976112cb93611287926112c59c60ff611262858d6115ca565b505460a01c161561130557505061127c6112819188611763565b611806565b976115ca565b500154600f0b6112d26112cb61129c836117bd565b956112c56112bb6112ac836117bd565b926112b687611910565b611935565b916112b689611910565b9061172c565b9180611935565b906117e2565b92611935565b926116fd565b90600f0b90526112148a8d6116fd565b989701959493929190898c8e610e69565b61128192509061127c91611763565b546001600160a01b03165f908152600660205260409020600101805461133990611676565b90558a610dff565b6032111599506001610d9e565b9060ff61135b83886115ca565b505460a01c1661138a575b61138360019182611377858a6115ca565b500154600f0b9061172c565b9101610d2c565b96611383611399600192611676565b98915050611366565b60405162461bcd60e51b81526020600482015260116024820152706e656564203e3d203220726174696e677360781b6044820152606490fd5b634e487b7160e01b5f525f60045260245ffd5b60405162461bcd60e51b815260206004820152601760248201527f696e73756666696369656e7420636f6c6c61746572616c0000000000000000006044820152606490fd5b60405162461bcd60e51b815260206004820152601760248201527f70726564696374696f6e206f7574206f662072616e67650000000000000000006044820152606490fd5b50600160401b831315610b8d565b60405162461bcd60e51b815260206004820152600d60248201526c185b1c9958591e481c985d1959609a1b6044820152606490fd5b60405162461bcd60e51b81526020600482015260146024820152736e6f74206177616974696e6720726174696e677360601b6044820152606490fd5b34610115576020366003190112610115576040906001600160a01b0361151b611537565b165f526006602052815f20600181549101549082526020820152f35b600435906001600160a01b038216820361011557565b602435906001600160a01b038216820361011557565b90600382101561022a5752565b90602080835192838152019201905f5b81811061158d5750505090565b825180516001600160a01b03168552602081810151151581870152604091820151600f0b9186019190915260609094019390920191600101611580565b80548210156115e3575f5260205f209060011b01905f90565b634e487b7160e01b5f52603260045260245ffd5b919082039182116110df57565b6060810190811067ffffffffffffffff82111761057257604052565b60c0810190811067ffffffffffffffff82111761057257604052565b90601f8019910116810190811067ffffffffffffffff82111761057257604052565b67ffffffffffffffff81116105725760051b60200190565b5f1981146110df5760010190565b6007548110156115e35760075f5260205f2001905f90565b919082018092116110df57565b677fffffffffffffff81116101155760401b600f0b90565b81156110f3570490565b906116d58261165e565b6116e2604051918261163c565b82815280926116f3601f199161165e565b0190602036910137565b80518210156115e35760209160051b010190565b9190915f83820193841291129080158216911516176110df57565b90600f0b90600f0b0160016001607f1b031981121580611752575b1561011557600f0b90565b5060016001607f1b03811315611747565b90600f0b9081156101155760401b60170b0560016001607f1b031981121580611752571561011557600f0b90565b67ffffffffffffffff81600f0b600181126117b55781126117b0575090565b905090565b505050600190565b600f0b600160401b0360016001607f1b031981121580611752571561011557600f0b90565b600f91820b910b0360016001607f1b031981121580611752571561011557600f0b90565b600f0b5f811315610115575f9080600160401b821215611903575b8064010000000060029212156118f7575b620100008112156118eb575b6101008112156118df575b60108112156118d3575b60048112156118c8575b12156118be575b603f19820160401b91607f031b90678000000000000000915b5f83136118a257506fb17217f7d1cf79abc9e3b39803f2f6af9150600f0b0260801d90565b8002908160ff1c9182607f011c918302019160011d919061187d565b9060010190611864565b92810192811d61185d565b6004938401931d611853565b6008938401931d611849565b6010938401931d61183e565b6020938401931d611832565b506040915080821d611821565b600f0b60411b60401d60016001607f1b031981121580611752571561011557600f0b90565b90600f0b90600f0b0260401d60016001607f1b031981121580611752571561011557600f0b90565b600f81900b919060016001607f1b031983036119a3575090506002600160c01b031981121580611995575b15610115575f03603f1b90565b50600160c01b811315611988565b5f8093126119f3575b5f82126119e5575b906119be91611ab8565b90156119d457600160ff1b8111610115575f0390565b6001600160ff1b0381116101155790565b9115915f91909103906119b4565b600192505f03600f0b6119ac565b805f52600860205260405f20548015611ab4575f1981018181116110df576007545f1981019081116110df57808203611a81575b5050506007548015611a6d575f1901611a4d81611684565b8154905f199060031b1b191690556007555f5260086020525f6040812055565b634e487b7160e01b5f52603160045260245ffd5b61053a91611a91611aa092611684565b90549060031b1c928391611684565b5f52600860205260405f20555f8080611a35565b5050565b8115611af957600f0b5f8112610115576001600160801b038216810260401c9160801c026001600160c01b0381116101155760401b81198111610115570190565b50505f9056fea2646970667358221220d5c8ea354d275a620c7615558f264aab6328be3aac3c4444fc2d7ed08103936a64736f6c634300081c0033","linkReferences":{}},"methodIdentifiers":{"alpha()":"db1d0fd5","balances(address)":"27e235e3","beta()":"9faa3c91","collateralPerRating()":"c7ee6214","createTask(bytes32,uint8)":"be912791","deposit()":"d0e30db0","getActiveTasks()":"6127f246","getRatings(uint256)":"d18e2509","getScore(uint256,address)":"80f2ff25","getTask(uint256)":"1d65e77e","getWorkerReputation(address)":"c7440c8c","hasRated(uint256,address)":"76454486","nextTaskId()":"fdc3d8d7","ratings(uint256,uint256)":"482ef360","scores(uint256,address)":"7a07b674","submitRating(uint256,bool,int128)":"0c5f891c","submitResult(uint256,bytes32)":"d2ee66cf","tasks(uint256)":"8d977672","withdraw(uint256)":"2e1a7d4d","workerReputation(address)":"08a101b8"},"id":20}