{"abi":[{"type":"constructor","inputs":[{"name":"_alpha","type":"int128","internalType":"int128"},{"name":"_beta","type":"int128","internalType":"int128"},{"name":"_collateral","type":"uint256","internalType":"uint256"}],"stateMutability":"nonpayable"},{"type":"function","name":"alpha","inputs":[],"outputs":[{"name":"","type":"int128","internalType":"int128"}],"stateMutability":"view"},{"type":"function","name":"balances","inputs":[{"name":"","type":"address","internalType":"address"}],"outputs":[{"name":"","type":"uint256","internalType":"uint256"}],"stateMutability":"view"},{"type":"function","name":"beta","inputs":[],"outputs":[{"name":"","type":"int128","internalType":"int128"}],"stateMutability":"view"},{"type":"function","name":"collateralPerRating","inputs":[],"outputs":[{"name":"","type":"uint256","internalType":"uint256"}],"stateMutability":"view"},{"type":"function","name":"createTask","inputs":[{"name":"promptHash","type":"bytes32","internalType":"bytes32"},{"name":"numRaters","type":"uint8","internalType":"uint8"}],"outputs":[{"name":"taskId","type":"uint256","internalType":"uint256"}],"stateMutability":"nonpayable"},{"type":"function","name":"deposit","inputs":[],"outputs":[],"stateMutability":"payable"},{"type":"function","name":"getActiveTasks","inputs":[],"outputs":[{"name":"","type":"uint256[]","internalType":"uint256[]"}],"stateMutability":"view"},{"type":"function","name":"getRatings","inputs":[{"name":"taskId","type":"uint256","internalType":"uint256"}],"outputs":[{"name":"","type":"tuple[]","internalType":"struct LichenCoordinator.Rating[]","components":[{"name":"rater","type":"address","internalType":"address"},{"name":"signal","type":"bool","internalType":"bool"},{"name":"prediction","type":"int128","internalType":"int128"}]}],"stateMutability":"view"},{"type":"function","name":"getScore","inputs":[{"name":"taskId","type":"uint256","internalType":"uint256"},{"name":"rater","type":"address","internalType":"address"}],"outputs":[{"name":"","type":"int256","internalType":"int256"}],"stateMutability":"view"},{"type":"function","name":"getTask","inputs":[{"name":"taskId","type":"uint256","internalType":"uint256"}],"outputs":[{"name":"task","type":"tuple","internalType":"struct LichenCoordinator.Task","components":[{"name":"promptHash","type":"bytes32","internalType":"bytes32"},{"name":"worker","type":"address","internalType":"address"},{"name":"outputHash","type":"bytes32","internalType":"bytes32"},{"name":"numRatersRequired","type":"uint8","internalType":"uint8"},{"name":"phase","type":"uint8","internalType":"enum LichenCoordinator.Phase"},{"name":"accepted","type":"bool","internalType":"bool"}]},{"name":"taskRatings","type":"tuple[]","internalType":"struct LichenCoordinator.Rating[]","components":[{"name":"rater","type":"address","internalType":"address"},{"name":"signal","type":"bool","internalType":"bool"},{"name":"prediction","type":"int128","internalType":"int128"}]}],"stateMutability":"view"},{"type":"function","name":"hasRated","inputs":[{"name":"","type":"uint256","internalType":"uint256"},{"name":"","type":"address","internalType":"address"}],"outputs":[{"name":"","type":"bool","internalType":"bool"}],"stateMutability":"view"},{"type":"function","name":"nextTaskId","inputs":[],"outputs":[{"name":"","type":"uint256","internalType":"uint256"}],"stateMutability":"view"},{"type":"function","name":"ratings","inputs":[{"name":"","type":"uint256","internalType":"uint256"},{"name":"","type":"uint256","internalType":"uint256"}],"outputs":[{"name":"rater","type":"address","internalType":"address"},{"name":"signal","type":"bool","internalType":"bool"},{"name":"prediction","type":"int128","internalType":"int128"}],"stateMutability":"view"},{"type":"function","name":"scores","inputs":[{"name":"","type":"uint256","internalType":"uint256"},{"name":"","type":"address","internalType":"address"}],"outputs":[{"name":"","type":"int256","internalType":"int256"}],"stateMutability":"view"},{"type":"function","name":"submitRating","inputs":[{"name":"taskId","type":"uint256","internalType":"uint256"},{"name":"signal","type":"bool","internalType":"bool"},{"name":"prediction","type":"int128","internalType":"int128"}],"outputs":[],"stateMutability":"nonpayable"},{"type":"function","name":"submitResult","inputs":[{"name":"taskId","type":"uint256","internalType":"uint256"},{"name":"outputHash","type":"bytes32","internalType":"bytes32"}],"outputs":[],"stateMutability":"nonpayable"},{"type":"function","name":"tasks","inputs":[{"name":"","type":"uint256","internalType":"uint256"}],"outputs":[{"name":"promptHash","type":"bytes32","internalType":"bytes32"},{"name":"worker","type":"address","internalType":"address"},{"name":"outputHash","type":"bytes32","internalType":"bytes32"},{"name":"numRatersRequired","type":"uint8","internalType":"uint8"},{"name":"phase","type":"uint8","internalType":"enum LichenCoordinator.Phase"},{"name":"accepted","type":"bool","internalType":"bool"}],"stateMutability":"view"},{"type":"function","name":"withdraw","inputs":[{"name":"amount","type":"uint256","internalType":"uint256"}],"outputs":[],"stateMutability":"nonpayable"},{"type":"event","name":"Deposited","inputs":[{"name":"agent","type":"address","indexed":true,"internalType":"address"},{"name":"amount","type":"uint256","indexed":false,"internalType":"uint256"}],"anonymous":false},{"type":"event","name":"RatingSubmitted","inputs":[{"name":"taskId","type":"uint256","indexed":true,"internalType":"uint256"},{"name":"rater","type":"address","indexed":true,"internalType":"address"},{"name":"signal","type":"bool","indexed":false,"internalType":"bool"}],"anonymous":false},{"type":"event","name":"ResultSubmitted","inputs":[{"name":"taskId","type":"uint256","indexed":true,"internalType":"uint256"},{"name":"worker","type":"address","indexed":true,"internalType":"address"},{"name":"outputHash","type":"bytes32","indexed":false,"internalType":"bytes32"}],"anonymous":false},{"type":"event","name":"TaskCreated","inputs":[{"name":"taskId","type":"uint256","indexed":true,"internalType":"uint256"},{"name":"promptHash","type":"bytes32","indexed":false,"internalType":"bytes32"},{"name":"numRaters","type":"uint8","indexed":false,"internalType":"uint8"}],"anonymous":false},{"type":"event","name":"TaskScored","inputs":[{"name":"taskId","type":"uint256","indexed":true,"internalType":"uint256"},{"name":"accepted","type":"bool","indexed":false,"internalType":"bool"}],"anonymous":false},{"type":"event","name":"Withdrawn","inputs":[{"name":"agent","type":"address","indexed":true,"internalType":"address"},{"name":"amount","type":"uint256","indexed":false,"internalType":"uint256"}],"anonymous":false}],"bytecode":{"object":"0x60e0346100a257601f61187138819003918201601f19168301916001600160401b038311848410176100a6578084926060946040528339810103126100a257610047816100ba565b906040610056602083016100ba565b9101519160805260a05260c0526040516117a890816100c9823960805181818161011a0152610dbd015260a05181818161057e0152610ddf015260c0518181816103790152610b500152f35b5f80fd5b634e487b7160e01b5f52604160045260245ffd5b519081600f0b82036100a25756fe6080806040526004361015610012575f80fd5b5f3560e01c9081630c5f891c14610ab8575080631d65e77e1461092657806327e235e3146108eb5780632e1a7d4d146107c2578063482ef3601461075d5780636127f246146106a7578063764544861461065e5780637a07b6741461061a57806380f2ff251461061a5780638d977672146105a45780639faa3c9114610567578063be9127911461039c578063c7ee621414610362578063d0e30db0146102d7578063d18e250914610228578063d2ee66cf14610140578063db1d0fd5146101035763fdc3d8d7146100e2575f80fd5b346100ff575f3660031901126100ff576020600154604051908152f35b5f80fd5b346100ff575f3660031901126100ff5760206040517f0000000000000000000000000000000000000000000000000000000000000000600f0b8152f35b346100ff5760403660031901126100ff5760043560243590805f52600260205260405f20600381019060ff825460081c166003811015610214576101db576001810180546001600160a01b03191633908117909155600291909101849055815461ff00191661010017909155604051928352917f9bb2295443670abcb0f3088e52668e961eca6816b19f155f2fca528c4b2fe34590602090a3005b60405162461bcd60e51b81526020600482015260116024820152706e6f74206177616974696e6720776f726b60781b6044820152606490fd5b634e487b7160e01b5f52602160045260245ffd5b346100ff5760203660031901126100ff576004355f52600360205260405f2080546102528161130a565b9161026060405193846112e8565b81835260208301905f5260205f205f915b838310610292576040516020808252819061028e90820188611206565b0390f35b600260206001926040516102a5816112b0565b60ff8654868060a01b038116835260a01c1615158382015284860154600f0b6040820152815201920192019190610271565b5f3660031901126100ff57341561032e57335f525f60205260405f206102fe348254611348565b90556040513481527f2da466a7b24304f47e87fa2e1e5a81b9831ce54fec19055ce277ca2f39ba42c460203392a2005b60405162461bcd60e51b815260206004820152600c60248201526b1e995c9bc819195c1bdcda5d60a21b6044820152606490fd5b346100ff575f3660031901126100ff5760206040517f00000000000000000000000000000000000000000000000000000000000000008152f35b346100ff5760403660031901126100ff576004356024359060ff82168092036100ff576002821061052f57600154906103d482611322565b6001556040516103e3816112cc565b81815260208101905f8252604081015f815260ff6003606084019388855260808101935f855260a08201965f8852895f52600260205260405f209251835560018060a01b03905116600183019060018060a01b03166bffffffffffffffffffffffff60a01b8254161790555160028201550192511660ff1983541617825551916003831015610214578154905162ffff001990911660089390931b61ff00169290921791151560101b62ff00001691909117905560065492600160401b84101561051b57604083927f904159f58b81dc59adca08724f109eec8750cbd8f9143e12aba2cbfe60f60a84926104fb856104e389600160209b01600655611330565b90919082549060031b91821b915f19901b1916179055565b600654855f5260078852835f2055825191825286820152a2604051908152f35b634e487b7160e01b5f52604160045260245ffd5b60405162461bcd60e51b815260206004820152601060248201526f6e656564203e3d20322072617465727360801b6044820152606490fd5b346100ff575f3660031901126100ff5760206040517f0000000000000000000000000000000000000000000000000000000000000000600f0b8152f35b346100ff5760203660031901126100ff576004355f52600260205260c060405f2060ff81549160018060a01b0360018201541690600360028201549101549160405194855260208501526040840152818116606084015261060d60808401838360081c166111f9565b60101c16151560a0820152f35b346100ff5760403660031901126100ff57610633611260565b6004355f52600560205260405f209060018060a01b03165f52602052602060405f2054604051908152f35b346100ff5760403660031901126100ff57610677611260565b6004355f52600460205260405f209060018060a01b03165f52602052602060ff60405f2054166040519015158152f35b346100ff575f3660031901126100ff576040518060206006549283815201809260065f527ff652222313e28459528d920b65115c16c04f3efc82aaedc97be59f3f377c0d3f905f5b81811061074757505050816107059103826112e8565b604051918291602083019060208452518091526040830191905f5b81811061072e575050500390f35b8251845285945060209384019390920191600101610720565b82548452602090930192600192830192016106ef565b346100ff5760403660031901126100ff576024356004355f52600360205260405f2080548210156100ff5760609161079491611276565b5060018154910154600f0b60ff6040519260018060a01b038116845260a01c16151560208301526040820152f35b346100ff5760203660031901126100ff57600435335f525f6020528060405f2054106108af57335f525f60205260405f206107fe8282546112a3565b90555f80808084335af13d156108aa573d67ffffffffffffffff811161051b5760405190610836601f8201601f1916602001836112e8565b81525f60203d92013e5b15610873576040519081527f7084f5476618d8e60b11ef0d7d3f06914655adb8793e28ff7f018d4c76d505d560203392a2005b60405162461bcd60e51b815260206004820152600f60248201526e1d1c985b9cd9995c8819985a5b1959608a1b6044820152606490fd5b610840565b60405162461bcd60e51b8152602060048201526014602482015273696e73756666696369656e742062616c616e636560601b6044820152606490fd5b346100ff5760203660031901126100ff576004356001600160a01b038116908190036100ff575f525f602052602060405f2054604051908152f35b346100ff5760203660031901126100ff576004355f60a0604051610949816112cc565b8281528260208201528260408201528260608201528260808201520152805f52600260205260405f2060405161097e816112cc565b8154815260018060a01b0360018301541691602082019283526003600282015491604084019283520154606083019460ff8216865260ff8260081c16906080850191600381101561021457825260ff60a086019360101c16151583525f52600360205260405f20958654936109f28561130a565b94610a0060405196876112e8565b80865260208601985f5260205f20985f905b828210610a72575050509160ff610a599261028e969594604051998a99518a5260018060a01b0390511660208a0152516040890152511660608701525160808601906111f9565b51151560a084015260e060c084015260e0830190611206565b600260206001928d8460405191610a88836112b0565b60ff8154838060a01b038116855260a01c161515858401520154600f0b60408201528152019b0191019099610a12565b346100ff5760603660031901126100ff57600435602435918215158093036100ff576044359283600f0b8094036100ff57825f526002602052600360405f20019160ff835460081c166003811015610214576001036111c057505f83815260046020908152604080832033845290915290205460ff1661118b575f8412158061117d575b1561113857335f525f60205260405f2054937f00000000000000000000000000000000000000000000000000000000000000008095106110f357335f525f60205260405f20610b8c8682546112a3565b90555f8481526004602090815260408083203384528252808320805460ff19166001179055868352600390915290819020905190610bc9826112b0565b3382526020820190848252604083019384528054600160401b81101561051b57610bf891600182018155611276565b9190916110e0579151815492516001600160a81b03199093166001600160a01b039091161791151560a01b60ff60a01b169190911781559051600190910180546001600160801b039092166fffffffffffffffffffffffffffffffff19909216919091179055604051908152339083907f4cb699db7a9d6d88da1af996e6f9c2d018ac84df4a5b0a722cf08ced324ecd8990602090a3815f52600360205260ff60405f20549154161115610ca857005b805f52600260205260405f2091815f52600360205260405f2090815493600285106110a757610cd8859495611355565b935f945f5f5b83811061104d5750610d00610cfb83610cf68a611355565b6113d6565b611404565b90610d17610cfb84610d1185611430565b936113d6565b90610d2182611430565b9582600f0b84600f0b121599606481029080820460641490151715610f285786610d4a9161136d565b8a611040575b5060030180546102009a151560101b62ff00001662ffff001990911617999099178955868502968588041485151715610f28579187969392610d9386979661130a565b95610da160405197886112e8565b878752601f19610db08961130a565b013660208901375f935f937f0000000000000000000000000000000000000000000000000000000000000000917f0000000000000000000000000000000000000000000000000000000000000000935b8b8710610f3c5750505050505050849550610e2792939491610e21916113d6565b9261136d565b915f915f8412918215935b868110610e80575050505050505050602060ff7fb4912a19109e2390fbd07484eb66d27f7fc3519f41a592d15af62c3d6837be9f92610e7085611674565b5460101c166040519015158152a2005b610ea086610e9b85610e92858761138b565b51600f0b611455565b6115d0565b908187019182128015861690871617610f28576001915f8112610f21575b8b5f52600560205260405f20610ed4838c611276565b50848060a01b03905416848060a01b03165f526020528060405f2055610efa828b611276565b50838060a01b039054165f525f602052610f1960405f20918254611348565b905501610e32565b505f610ebe565b634e487b7160e01b5f52601160045260245ffd5b91939597989b85976110128a8d9e9d610ffd8b610fe48a610ff761101c998b9d9f8f610ff18f60019f6001908d610fa691610fea94610ff79860ff610f81858d611276565b505460a01c1615611031575050610f9b610fa091886113d6565b611479565b97611276565b500154600f0b610ff1610fea610fbb83611430565b95610fe4610fda610fcb83611430565b92610fd587611583565b6115a8565b91610fd589611583565b9061139f565b91806115a8565b90611455565b926115a8565b611007838361138b565b90600f0b905261138b565b51600f0b9061139f565b9701949290918c9b98979694929a999a610e00565b610fa0925090610f9b916113d6565b6032111599506003610d50565b9060ff61105d83899b9a9b611276565b505460a01c1661108f575b61108560019182611079858b611276565b500154600f0b9061139f565b9101979697610cde565b9761108561109e600192611322565b99915050611068565b60405162461bcd60e51b81526020600482015260116024820152706e656564203e3d203220726174696e677360781b6044820152606490fd5b634e487b7160e01b5f525f60045260245ffd5b60405162461bcd60e51b815260206004820152601760248201527f696e73756666696369656e7420636f6c6c61746572616c0000000000000000006044820152606490fd5b60405162461bcd60e51b815260206004820152601760248201527f70726564696374696f6e206f7574206f662072616e67650000000000000000006044820152606490fd5b50600160401b841315610b3c565b60405162461bcd60e51b815260206004820152600d60248201526c185b1c9958591e481c985d1959609a1b6044820152606490fd5b62461bcd60e51b81526020600482015260146024820152736e6f74206177616974696e6720726174696e677360601b6044820152606490fd5b9060038210156102145752565b90602080835192838152019201905f5b8181106112235750505090565b825180516001600160a01b03168552602081810151151581870152604091820151600f0b9186019190915260609094019390920191600101611216565b602435906001600160a01b03821682036100ff57565b805482101561128f575f5260205f209060011b01905f90565b634e487b7160e01b5f52603260045260245ffd5b91908203918211610f2857565b6060810190811067ffffffffffffffff82111761051b57604052565b60c0810190811067ffffffffffffffff82111761051b57604052565b90601f8019910116810190811067ffffffffffffffff82111761051b57604052565b67ffffffffffffffff811161051b5760051b60200190565b5f198114610f285760010190565b60065481101561128f5760065f5260205f2001905f90565b91908201809211610f2857565b677fffffffffffffff81116100ff5760401b600f0b90565b8115611377570490565b634e487b7160e01b5f52601260045260245ffd5b805182101561128f5760209160051b010190565b90600f0b90600f0b0160016001607f1b0319811215806113c5575b156100ff57600f0b90565b5060016001607f1b038113156113ba565b90600f0b9081156100ff5760401b60170b0560016001607f1b0319811215806113c557156100ff57600f0b90565b67ffffffffffffffff81600f0b60018112611428578112611423575090565b905090565b505050600190565b600f0b600160401b0360016001607f1b0319811215806113c557156100ff57600f0b90565b600f91820b910b0360016001607f1b0319811215806113c557156100ff57600f0b90565b600f0b5f8113156100ff575f9080600160401b821215611576575b80640100000000600292121561156a575b6201000081121561155e575b610100811215611552575b6010811215611546575b600481121561153b575b1215611531575b603f19820160401b91607f031b90678000000000000000915b5f831361151557506fb17217f7d1cf79abc9e3b39803f2f6af9150600f0b0260801d90565b8002908160ff1c9182607f011c918302019160011d91906114f0565b90600101906114d7565b92810192811d6114d0565b6004938401931d6114c6565b6008938401931d6114bc565b6010938401931d6114b1565b6020938401931d6114a5565b506040915080821d611494565b600f0b60411b60401d60016001607f1b0319811215806113c557156100ff57600f0b90565b90600f0b90600f0b0260401d60016001607f1b0319811215806113c557156100ff57600f0b90565b600f81900b919060016001607f1b03198303611616575090506002600160c01b031981121580611608575b156100ff575f03603f1b90565b50600160c01b8113156115fb565b5f809312611666575b5f8212611658575b906116319161172b565b901561164757600160ff1b81116100ff575f0390565b6001600160ff1b0381116100ff5790565b9115915f9190910390611627565b600192505f03600f0b61161f565b805f52600760205260405f20548015611727575f198101818111610f28576006545f198101908111610f28578082036116f4575b50505060065480156116e0575f19016116c081611330565b8154905f199060031b1b191690556006555f5260076020525f6040812055565b634e487b7160e01b5f52603160045260245ffd5b6104e39161170461171392611330565b90549060031b1c928391611330565b5f52600760205260405f20555f80806116a8565b5050565b811561176c57600f0b5f81126100ff576001600160801b038216810260401c9160801c026001600160c01b0381116100ff5760401b811981116100ff570190565b50505f9056fea264697066735822122085503a996a68cde61a8086c91adc9bb875aa101820710e7ea33aaffce197fe0a64736f6c634300081c0033","linkReferences":{}},"methodIdentifiers":{"alpha()":"db1d0fd5","balances(address)":"27e235e3","beta()":"9faa3c91","collateralPerRating()":"c7ee6214","createTask(bytes32,uint8)":"be912791","deposit()":"d0e30db0","getActiveTasks()":"6127f246","getRatings(uint256)":"d18e2509","getScore(uint256,address)":"80f2ff25","getTask(uint256)":"1d65e77e","hasRated(uint256,address)":"76454486","nextTaskId()":"fdc3d8d7","ratings(uint256,uint256)":"482ef360","scores(uint256,address)":"7a07b674","submitRating(uint256,bool,int128)":"0c5f891c","submitResult(uint256,bytes32)":"d2ee66cf","tasks(uint256)":"8d977672","withdraw(uint256)":"2e1a7d4d"},"id":20}